:100000000C9463000C948B000C948B000C948B006C
:100010000C948B000C948B000C948B000C948B0034
:100020000C948B000C948B000C948B000C948B0024
:100030000C948B000C948B000C948B000C948B0014
:100040000C94C3100C948B000C94700D0C94B30D95
:100050000C948B000C948B000C948B000C948B00F4
:100060000C948B000C948B00000000070002010030
:100070000003040600000000000000000102040864
:100080001020408001020408102001020408102002
:10009000040404040404040402020202020203032E
:1000A00003030303000000002300260029000000D2
:1000B0000000250028002B0000000000240027007D
:1000C0002A00070C720E11241FBECFEFD8E0DEBF4E
:1000D000CDBF12E0A0E0B1E0ECE6F6E202C0059090
:1000E0000D92A63CB107D9F726E0A6ECB2E001C01C
:1000F0001D92A132B207E1F710E0C3E6D0E004C0E0
:100100002197FE010E941613C136D107C9F70E943C
:10011000CF0E0C9434130C940000DC01FB011296FA
:100120008C911297808313968C91139781831496E8
:100130008C911497828315968C91159783831696CC
:100140008C911697848317968C91179785831896B0
:100150008C911897868319968C91878388E090E01C
:100160000895FC01DB014C9150E060E070E04283B7
:1001700053836483758311968C911197582B428316
:1001800053836483758312968C911297682B4283F4
:1001900053836483758313968C911397782B4283D2
:1001A00053836483758314964C91149750E060E0F8
:1001B00070E0468357836087718715968C911597F9
:1001C000582B468357836087718716968C911697B4
:1001D000682B468357836087718717968C91782B9D
:1001E000468357836087718788E090E0089586E0B2
:1001F00091E0089584E191E0089585E391E0089508
:100200008EE491E008958FE691E0089582E891E010
:1002100008958AE992E0089583EA91E0089584ECD4
:1002200091E008958FED91E00895FC0122813381E2
:1002300030936905209368058285938590936705BF
:100240008093660508958A5A9D4FFC018081089528
:10025000FC01848D958D089584EC91E008958FEDD7
:1002600091E00895A5E0B0E0E8E3F1E00C94B51268
:10027000643671053CF0FC01EA5AFD4F20812223CF
:1002800009F477C0DA017B018C01BC01695C7E4F07
:10029000ED91FC910190F081E02DCA010995680172
:1002A00020EDC21A2EEFD20A2FEFD6012C93F801BF
:1002B000EF5CFE4F2EEF2083319680833196908342
:1002C0003196292F280F209520833196E0821696AB
:1002D000FC9245E050E020E030E0DC011696A417E7
:1002E000B50734F06191260F311D4F5F5F4FF7CF97
:1002F0007C01B8E0EB0EF11C800F911FFC01E95C62
:10030000FE4F20952083E9E1EE16E1E0FE06BCF405
:100310005601C5018C199D098E159F056CF5D801F4
:1003200012968D919C911397F50161915F01DC010B
:10033000ED91FC910190F081E02D0995EACF84E6E2
:1003400092E09A83898383E08B8380E092E09D83AF
:100350008C83D801ED91FC910190F081E02DAE01EC
:100360004F5F5F4F67E070E0C80109958FEF9FEF27
:1003700004C080E090E001C0C7012596EAE00C943B
:10038000D11282EA8093800082E18093810080E232
:100390009EE49093870080938600089583B18170D6
:1003A00008958091680590916905209166053091C6
:1003B0006705309389002093880090938B00809389
:1003C0008A000895CF92DF92EF92FF9220E030E012
:1003D0006A017B01022E04C0F694E794D794C79477
:1003E0000A94D2F7FC01C192CF01285F3F4F20321F
:1003F000310571F7FF90EF90DF90CF900895A0E066
:10040000B0E0E5E0F2E00C94B4127C01EB01DC0119
:100410001296EC9112971396BC9013971496CC9069
:1004200014971596DC90159716961C9116971796AB
:10043000AC90179718969C9018971996FC9119975D
:10044000E8832E2F3B2DA601612F7A2D892D9F2F1A
:1004500008E00E94E61229832E2F3B2DA601612F72
:100460007A2D892D9F2F00E10E94E6122A832E2FDC
:100470003B2DA601612F7A2D892D9F2F08E10E9427
:10048000E6122B832E2F3B2DA601612F7A2D892D6D
:100490009F2F00E20E94E6122C832E2F3B2DA601F7
:1004A000612F7A2D892D9F2F08E20E94E6122D835D
:1004B0002E2F3B2DA601612F7A2D892D9F2F00E332
:1004C0000E94E6122E832E2F3B2DA601612F7A2D3E
:1004D000892D9F2F08E30E94E6122F831A96EC9134
:1004E0001A971B96BC901B971C96CC901C971D9638
:1004F000DC901D971E961C911E971F96AC901F971F
:1005000050969C9050975196FC915197E8872E2FCA
:100510003B2DA601612F7A2D892D9F2F08E00E9487
:10052000E61229872E2F3B2DA601612F7A2D892DCA
:100530009F2F00E10E94E6122A872E2F3B2DA60155
:10054000612F7A2D892D9F2F08E10E94E6122B87BB
:100550002E2F3B2DA601612F7A2D892D9F2F00E292
:100560000E94E6122C872E2F3B2DA601612F7A2D9B
:10057000892D9F2F08E20E94E6122D872E2F3B2DFA
:10058000A601612F7A2D892D9F2F00E30E94E6128C
:100590002E872E2F3B2DA601612F7A2D892D9F2F7F
:1005A00008E30E94E6122F8752960D90BC91A02D71
:1005B000FD0101900020E9F731978F010A1B1B0B09
:1005C000A80160E070E0CE0140960E94E201F701D0
:1005D00062897389A801CE0144960E942B13C80139
:1005E0004496CDB7DEB7EBE00C94D0124F925F92F9
:1005F0006F927F92AF92BF92CF92DF92EF92FF9273
:100600000F931F93CF93DF93EC018B018A81FB0142
:1006100080838B8181838C8182838D818383DB01C5
:1006200040E050E0BA01E4E0F0E01496CA80DB80DC
:10063000EC80FD80CF0104964C155D056E057F05AD
:10064000C8F42A853B85E20FF31F3497D080F180F0
:1006500032812381DC921196FC92119712963C9381
:10066000129713962C931397FC014F5F5F4F6F4FB8
:100670007F4FDBCF5F01A00EB11E2C85F5012083DB
:100680002D8521832E8522832F852383D50140E06C
:1006900050E0BA01CC84DD84EE84FF849C012C5FA1
:1006A0003F4F4C155D056E057F05F8F4CD018A19A5
:1006B0009B09EC88FD888E0D9F1DFC01D080E18098
:1006C000F28083811496DC9214971596EC9215971C
:1006D0001696FC92169717968C931797C9014F5F41
:1006E0005F4F6F4F7F4F1496D5CFF801E80FF91F7A
:1006F0008E8980838F898183888D8283898D83838E
:100700007901A12CB12C412C512C32018E899F8969
:10071000A88DB98D481659066A067B0680F5EC8DC2
:10072000FD8DEA0DFB1DA081B181FD01019000202E
:10073000E9F731976F01CA1ADB0AA60160E070E0A1
:10074000C8018E0D9F1D0E94E201F4E0EF0EF11C26
:10075000EC8DFD8DEA0DFB1D60817181A601C80144
:100760008E0D9F1D0E942B13EC0CFD1C8FEF481A61
:10077000580A680A780AE2E0AE0EB11CC7CFC7017A
:10078000DF91CF911F910F91FF90EF90DF90CF906D
:10079000BF90AF907F906F905F904F900895EF92D1
:1007A000FF920F931F93CF93DF938C017B01DC01AA
:1007B00012962C911297FB012193CF011396ED9184
:1007C000FC911497EF0109900020E9F72197CE1BC7
:1007D000DF0BAE0160E070E00E94E201D8011396E9
:1007E0006D917C911497AE01C70105960E942B1361
:1007F000CE010596CDB7DEB7E6E00C94D512A0E0A9
:10080000B0E0E5E0F4E00C94B7127C018B01DC0170
:1008100012968C911297FB01808313968C911397FB
:1008200081831496ED91FC911597EF0109900020BA
:10083000E9F72197CE1BDF0BAE0160E070E0C80145
:1008400002960E94E201D70114966D917C91159752
:10085000AE01C80106960E942B13CE010696F70141
:10086000A681B781FD0101900020E9F731976F0162
:10087000CA1ADB0AA60160E070E0800F911F0E9497
:10088000E2012A96D70116966D917C911797A601E1
:10089000C8018C0F9D1F0E942B13CC0DDD1DD701AD
:1008A0001896ED91FC911997DF010D900020E9F762
:1008B00011976D01CE1ADF0AA60160E070E0C80151
:1008C0008C0F9D1F0E94E2012496F70160857185BF
:1008D000A601C8018C0F9D1F0E942B13C6018C0F0F
:1008E0009D1FD7011A966C911A971B964C911B97D6
:1008F0001C963C911C971D962C91F801E80FF91F4E
:1009000060834183328323830496CDB7DEB7E8E06A
:100910000C94D312CF92DF92EF92FF92FC011082DF
:10092000118212821382DB0120E030E04D9150E011
:10093000022E02C0440F551F0A94E2F7052E000C48
:10094000660B770BC080D180E280F3804C295D2953
:100950006E297F294083518362837383285F3F4FD1
:100960002032310519F7FF90EF90DF90CF90089576
:100970004F925F926F927F928F929F92AF92BF92AF
:10098000EF92FF920F931F93CF93DF9300D000D08D
:10099000CDB7DEB77C018B01FB018081F70182833B
:1009A000FB018181F7018383FB018281F70184834D
:1009B000FB018381F7018583FB018481F701868335
:1009C000FB018581F7018783FB018681F701808721
:1009D000FB018781F7018187FB018085F701828711
:1009E000FB018185F7018387FB018285F7018487FD
:1009F000FB018385F7018587FB018485F7018687E5
:100A0000FB018585F7018787FB018685F701808BD0
:100A1000FB018785F701818B605F7F4FCE010196D7
:100A20000E948A0489819A81AB81BC814C015D015D
:100A3000F4E18F0E911CA11CB11CA8014D5E5F4F0B
:100A4000FA0124E130E02901612C712C4814590489
:100A50006A047B0428F4618161932F5F3F4FF3CFD9
:100A6000F801E80FF91F138AF701538B428B449664
:100A70000F900F900F900F90DF91CF911F910F91DA
:100A8000FF90EF90BF90AF909F908F907F906F906E
:100A90005F904F9008950F931F93CF93DF938C0136
:100AA000EC012696CE010E94B804D8015A96ED9129
:100AB000FC915B97CE010995DF91CF911F910F912A
:100AC00008954F925F926F927F928F929F92AF9212
:100AD000BF92EF92FF920F931F93CF93DF9300D0BB
:100AE00000D0CDB7DEB77C018B01FB018191BF0146
:100AF000F7018283CE0101960E948A0489819A813E
:100B0000AB81BC814C015D01F5E08F0E911CA11CF5
:100B1000B11CA8014C5F5F4FFA0125E030E02901CC
:100B2000612C712C481459046A047B0428F46181F7
:100B300061932F5F3F4FF3CFF801E80FF91F148245
:100B4000F7015483438305960F900F900F900F90F9
:100B5000DF91CF911F910F91FF90EF90BF90AF90D9
:100B60009F908F907F906F905F904F900895ACE032
:100B7000B0E0EDEBF5E00C94AF127C018B01DB01F2
:100B80008C9190E0F7019383828311962C91922BA4
:100B9000938382836E5F7F4FCE0109960E948A0401
:100BA00089849A84AB84BC8424013501F6E04F0E1D
:100BB000511C611C711C98012B5F3F4FF90186E0AD
:100BC00090E0AC0160E070E04415550566057705DE
:100BD00020F4418141930196F4CFF801E80DF91D0D
:100BE0001582D70115963C932E931497B4016A5F32
:100BF0007F4F600F711FCE0105960E948A04BAE0F4
:100C00008B0E911C4D805E806F807884A401092C2E
:100C1000000C660B770B440D551D661D771DD80122
:100C2000A80DB91DCD01801B910B5C01C12CD12CED
:100C3000A416B506C606D70628F48D91FD01329795
:100C40008083F0CF5401A40CB51CB8016A0D7B1D44
:100C5000FB0131971082C4010197800F911FF701AA
:100C600097838683CE0101960E948A0495012C5FAA
:100C70003F4F89819A81AB81BC812901032E000CF1
:100C800066087708480E591E6A1E7B1EF5013396CA
:100C9000E00FF11FA9014A01A12CB12C8414950485
:100CA000A604B70428F4618161934F5F5F4FF3CFCF
:100CB000820F931FF801E80FF91FDF0111971C92B3
:100CC00021503109020F131FD70119961C930E935F
:100CD00018972181428150E060E070E0BA01552709
:100CE0004427522B2081422B2381722BF70142870C
:100CF00053876487758704962C96E0E10C94CB1299
:100D0000A0E1B0E0E6E8F6E00C94AD128C016B01D6
:100D1000DB018D909D90AD90BC90FC018281938110
:100D2000A481B58188159905AA05BB0570F4B401A5
:100D3000660F771F660F771F828593850E94FD0FD0
:100D4000D8011B969C938E931A97F8018282938206
:100D5000A482B5829601812C912C540144E050E08C
:100D6000B8016A5F7F4F2C5F3F4FF801828193810A
:100D7000A481B581FA0134961F0188169906AA0646
:100D8000BB0650F5D9011196FC90119712968C91E3
:100D900090E0A0E0B0E0DC01992788279F29F901C5
:100DA000F0808F29F380BF29F80186839783A0877D
:100DB000B187DA01A101149782859385A80FB91F25
:100DC00084E0FB0101900D928A95E1F7FFEF8F1A05
:100DD0009F0AAF0ABF0AC7CF4601840E951ED401F1
:100DE0008C9111969C91119712964C901297512CC0
:100DF000612C712C320155244424592A482A139617
:100E00008C91782A5F01F80184859585A685B78540
:100E100084159505A605B70570F4B201660F771F16
:100E2000660F771F848995890E94FD0FD80155961A
:100E30009C938E935497F8014486558666867786F0
:100E4000C401412C512C32019801205F3F4FD80141
:100E50001C964D915D916D917C911F97F501349693
:100E6000441655066606770698F5DC011596FC9043
:100E7000159716964C91169750E060E070E0BA0115
:100E8000552744275F291496FC9014974F291796ED
:100E9000FC907F29D80150964D935D936D937C9380
:100EA00053975F01AC014819590954960D90BC91B4
:100EB000A02DA40FB51F44E0F90101900D924A95B1
:100EC000E1F7BFEF4B1A5B0A6B0A7B0A0496BFCFB0
:100ED000D601AA0DBB1D8C9111969C91119712966B
:100EE0008C901297912CA12CB12C54019924882418
:100EF000992A882A13968C91B82A7F01F80186894D
:100F00009789A08DB18D88159905AA05BB0560F458
:100F1000B401660F771F848D958D0E94FD0FD80157
:100F20005D969C938E935C97F801868A978AA08E33
:100F3000B18E212C312C812C912C54019801265EEC
:100F40003F4F3A872987F80186899789A08DB18D0F
:100F500088169906AA06BB0608F05FC0B6016E0D9A
:100F60007F1DCE0101960E948A0497012C5F3F4F9E
:100F7000388B2F8749815A816B817C81C901330F5E
:100F8000AA0BBB0B2C013D01440E551E661E771E9D
:100F90004B865C866D867E8623E0E20EF11CF601B0
:100FA000EE0DFF1D2F853889C901A0E0B0E04B840C
:100FB0005C846D847E8484159505A605B70528F4A8
:100FC000A181A1932F5F3F4FEFCF6F847888460DAB
:100FD000571DF601E40FF51F31971082C3010197E9
:100FE0008C0D9D1DD8015B969C938E935A977A0128
:100FF0005C96ED91FC915D97E20DF31DA985BA8594
:101000008D919C9191838083BFEF8B1A9B0AAB0AD1
:10101000BB0AE2E02E0E311C96CFC7016096E2E1DA
:101020000C94C912AAE0B0E0E8E1F8E00C94BB121D
:101030008C018CE492E09A8389831B821C821D823E
:101040001E821F82188619861A86D801ED91FC919E
:101050000190F081E02DAE014F5F5F4F6AE070E0DC
:10106000C80109950E940D11F80160877187828778
:1010700093872A96E4E00C94D7124F925F926F9276
:101080007F92AF92BF92CF92DF92EF92FF920F9337
:101090001F93CF93DF93CDB7DEB72E970FB6F8949B
:1010A000DEBF0FBECDBF8C0188E592E09A838983B5
:1010B0001C821B8288E392E09E838D8398878F83B6
:1010C0009A8789871B861C861D861E86780188EB79
:1010D000E81A8DEFF80A6801A4EBCA1AADEFDA0A34
:1010E00088E1482E55245394612C712CF701A0817E
:1010F000B1811097E1F112968D919C9113979C8389
:101100008B8314968D919C9115979E838D83ED9181
:10111000FC9111970480F581E02DCD010995988708
:101120008F83D7018D919C91DC01ED91FC9106801C
:10113000F781E02D09959A8789874B865C866D86B5
:101140007E86D801ED91FC91A080B180F70180816D
:101150009181DC01ED91FC910280F381E02D0995F4
:10116000AE014F5F5F4FBC01C801F5010995F2E088
:10117000EF0EF11CEC14FD0409F0B8CFF801EA5AA7
:10118000FD4F81E080832E960FB6F894DEBF0FBE30
:10119000CDBFDF91CF911F910F91FF90EF90DF9026
:1011A000CF90BF90AF907F906F905F904F900895D9
:1011B000AAE0B0E0EEEDF8E00C94B3128C015B0114
:1011C0008CE492E09A8389831B821C821D821E829A
:1011D0001F82188619861A860E940D11F801C08494
:1011E000D184E284F3849B01AC012C193D094E09A2
:1011F0005F0969017A01B501CE0101960E94B10033
:1012000088EE882E83E0982EA12CB12CC701B60160
:10121000A50194010E948012CB80DC80ED80FE80CD
:10122000C20ED31EE41EF51ECB82DC82ED82FE824E
:101230009B01AC0160E472E48FE090E00E945C12DC
:10124000CF80D884E984FA84DC01CB018C0D9D1D0C
:10125000AE1DBF1D8F839887A987BA870E940D1185
:10126000CB80DC80ED80FE8031E0C31AD108E1083C
:10127000F108A50194010E948012C21AD30AE40A5F
:10128000F50AF801C486D586E686F786CF80D8842D
:10129000E984FA84F6E3DF1AF5E6EF0AF4ECFF0AD4
:1012A0009B01AC0160E472E48FE090E00E945C126C
:1012B000C61AD70AE80AF90AF801C08AD18AE28A6E
:1012C000F38AB801605F7F4FC8010C960E94AE0C94
:1012D0000E940D11F801E55AFD4F608371838283EE
:1012E00093832A96ECE00C94CF12A0E1B0E0EBE7F8
:1012F000F9E00C94AD12988B8F870E940D114B0171
:101300005C012F853889255A3D4F3E832D83F90195
:1013100080819181A281B381A5019401281B390BA1
:101320004A0B5B0BDA01C901893F9A42A105B1055D
:1013300028F0EF85F889EA5AFD4F10820F85188949
:10134000045B1D4FD8018D919C91892B81F0EF8515
:10135000F889E15AFD4F80819181A281B38188157E
:101360009905AA05BB0518F4F801118210826F8453
:101370007888FCEA6F1AFDEF7F0A2F853889205B99
:101380003D4F3A832983CF84D88838E1C30ED11CDE
:101390004F8558894A5A5D4F58874F838F85988962
:1013A0008C599D4F9A878987AF85B889AD59BD4FB4
:1013B000BC87AB87EF84F888B2EBEB1ABDEFFB0A72
:1013C000EF85F889EE5AFD4FFC83EB832F85388932
:1013D000215A3D4F3E872D871401250134E1230E0C
:1013E000311C411C511CEF85F88984899589A68997
:1013F000B789892B8A2B8B2B89F4AF85B8891296F4
:101400008D919C911397DC01ED91FC910680F78101
:10141000E02D09959C0197FF15C03CC10E940D115C
:10142000DC01CB0188199909AA09BB09EF85F88964
:101430002489358946895789281739074A075B0760
:10144000E0F650C1D3018D919C911197820F931FAB
:101450008D939C93F8014081518147305105D9F417
:10146000AB81BC818D919C911197AC014F5F5F4F17
:101470004D935C93EF85F889E80FF91F208FF701F2
:1014800080819181019791838083892B09F0ABCF73
:1014900088E090E06FC04115510529F52F3F3105D7
:1014A00069F481E090E0F80191838083AD85BE8589
:1014B0002D923D924D925C92139795CF0E940D1103
:1014C000DC01CB0188199909AA09BB098938934124
:1014D000A105B10508F487CF2F8538892A5A3D4FD9
:1014E000D9011C92FFC04130510591F42E3F3105C6
:1014F00019F482E090E02EC011821082EF81F8850D
:101500008081811170CF8F8598890E9412086BCFDE
:101510004230510581F4D7012D933C93EB81FC813E
:101520001182108283E090E0D8018D939C93F301A7
:101530003183208358CF4330510581F4322F222745
:10154000D7018D919C911197280F391F2D933C93B2
:1015500084E090E0F8019183808345CF44305105C9
:1015600089F460E071E00E946C128F3F910531F4C4
:1015700085E090E0D8018D939C9335CFF8011182DE
:10158000108231CF4530510569F4A981BA812D937C
:101590003C9346E050E0F80151834083D3012D9302
:1015A0003C9321CF4630510599F4322F2227E9810F
:1015B000FA8180819181280F391F31832083E7E0F0
:1015C000F0E0D801ED93FC93D7018D919C915DCF14
:1015D0004830510509F007CFF8011182108260E010
:1015E00071E00E946C128F3F910509F0FCCEA98139
:1015F000BA818D919C910097C9F48F8598890E943A
:1016000012088F8598890E943D08EF85F889E95A6C
:10161000FD4F80829182A282B382ED81FE81808221
:101620009182A282B3828FEF9FEF61C08A309105D1
:1016300031F4B6018F8598890E94D808D4CE8630BF
:10164000910551F4B60189859A850E94800681E052
:10165000AB85BC858C93C7CE8B30910521F4EF818F
:10166000F8851082C0CEFC01E054FF4FEE0FFF1F43
:101670002F853889E20FF31F80819181009709F44B
:10168000B2CEDC01ED91FC910190F081E02DB6012C
:101690000995A9CEEF85F889EA5AFD4F8081882304
:1016A00021F10F851889095A1D4FF8018081918118
:1016B000A281B381A5019401281B390B4A0B5B0B56
:1016C000DA01C901853C9940A105B10570F08F850B
:1016D00098890E941208D8018D929D92AD92BC9279
:1016E000139703C08EEF9FEF02C080E090E06096FA
:1016F000E2E10C94C912CF93DF9360E084E10E9491
:10170000C81160E088E00E94C81161E089E00E9491
:10171000C81161E08AE00E94C81161E08DE00E947A
:10172000C81184E10E943312019771F4C1E0D1E045
:101730006C2F8DE00E940412CD2764EF71E080E0F1
:1017400090E00E943E11F4CF80E092ECA1E0B0E086
:101750008093E8029093E902A093EA02B093EB022F
:1017600040E052EC61E070E08091E6029091E70287
:101770000E94EE0D10923105109230051092330543
:1017800010923205109237051092360510923505E9
:101790001092340580912C0590912D05892B49F0EC
:1017A00080912E0590912F05892BB1F481E090E076
:1017B00002C080E090E0FC01EC5DFE4FEE0FFF1FE9
:1017C000EC51FD4F26EC32E0318320838C599F4F42
:1017D0009093C9028093C80280913A05811105C097
:1017E00084EE92E00E947509F7CF0E94C101DF915B
:1017F000CF91089584EE92E00E9475090E94CE0177
:10180000682F8DE00E9404120E94D101089588E89B
:1018100092E09093E5028093E4028AE695E090934B
:10182000E7028093E60280E091EEA0E0B0E08093D2
:10183000E8029093E902A093EA02B093EB021092BF
:101840003A0580E792E0909349058093480510920D
:101850004A0510924B0510924C0510924D051092BE
:10186000530510925205109254051092550510928E
:1018700056051092570510925D0510925C05109266
:101880005E0510925F05109260051092610510923E
:1018900065051092640510922D0510922C0510928A
:1018A0002F0510922E05ACEFB2E0E4E1F4E01D92BA
:1018B000EA17FB07E1F78CE295E011928E179F077C
:1018C000E1F71092F8021092F9021092FA021092C7
:1018D000FB0282E992E09093C7028093C6028CE7F4
:1018E00092E09093CD028093CC021092CE0210929F
:1018F000CF021092D0021092D1021092D202109216
:10190000D3021092D4021092D5021092D6021092F5
:10191000D7021092D8021092D9021092DA021092D5
:10192000DB021092DC021092DD0288E392E09093D9
:10193000DF028093DE0285E191E09093E1028093E3
:10194000E00281E090E09093E3028093E20289E379
:1019500092E09093CB028093CA020895A0E0B0E099
:10196000E4EBFCE00C94B7128C01EB016881798107
:101970008A819B8120E03AEC4AE95BE30E94801275
:10198000F801C080D180E280F380C20ED31EE41E35
:10199000F51EC082D182E282F382688379838A83D2
:1019A0009B83CDB7DEB7E8E00C94D312FC0124850D
:1019B0003585F901E05CFF4F80819181329620816D
:1019C0003181821B930B8F7399270895DC011C963C
:1019D000ED91FC911D97DF01A05CBF4F2D913C91D3
:1019E000119712968D919C9111972817390739F00C
:1019F0008D919C91E80FF91F808190E008958FEF01
:101A00009FEF0895FC01A485B585FD01E05CFF4FC3
:101A1000208131813296808191812817390779F0B0
:101A200080819181A80FB91F8C91208131812F5F16
:101A30003F4F2F7333273183208390E008958FEF3A
:101A40009FEF0895FC0181A1882329F0A489B5891D
:101A50008C9186FFFBCF11A208950F931F93CF9314
:101A6000DF93FC01A685B7858D01005C1F4FE8015F
:101A70008881998101968F739927AD014E5B5F4FE5
:101A8000EA012881398128173907D1F3E801288133
:101A90003981A20FB31F6C93A685B785A05CBF4F99
:101AA00011969C938E93A689B7892C9181E090E042
:101AB000078C02C0880F991F0A94E2F7822B8C933F
:101AC00081E081A30488F589E02D80818064808392
:101AD00081E090E0DF91CF911F910F9108950895DB
:101AE0001F920F920FB60F9211242F934F935F9373
:101AF0008F939F93EF93FF938091C00082FD1CC052
:101B00002091C60080911006909111064091120616
:101B10005091130601968F7399274817590771F052
:101B2000E0911006F0911106E053FA4F2083909354
:101B300011068093100602C08091C600FF91EF91BC
:101B40009F918F915F914F912F910F900FBE0F90AA
:101B50001F9018958AE695E00E94D60C892B11F00B
:101B60000E946F0D08951F920F920FB60F921124CD
:101B70002F933F938F939F93EF93FF932091CC05E7
:101B80003091CD058091CE059091CF05281739076A
:101B900031F48091C1008F7D8093C10014C0E09129
:101BA000CE05F091CF05E457FA4F20818091CE0504
:101BB0009091CF0501968F7399279093CF058093CD
:101BC000CE052093C600FF91EF919F918F913F9199
:101BD0002F910F900FBE0F901F901895CF92DF920C
:101BE000EF92FF92CF93DF93EC016A017B014115E5
:101BF000514E6105710509F1EC89FD8981E090E0A4
:101C000008A002C0880F991F0A94E2F7808360E061
:101C100079E08DE390E0A70196010E948012DA013D
:101C2000C9010197A109B109B695A795979587951F
:101C30009C01211580E13807A8F0EC89FD8910820C
:101C400060E874E88EE190E0A70196010E9480129E
:101C5000DA01C9010197A109B109B695A795979530
:101C600087959C01E889F9893083EA89FB8920837B
:101C700019A2EE89FF89408181E090E09C010C8CE3
:101C800002C0220F331F0A94E2F7242B2083EE892F
:101C9000FF8940819C010D8C02C0220F331F0A94E2
:101CA000E2F7242B2083EE89FF8940819C010E8C72
:101CB00002C0220F331F0A94E2F7242B2083EE89FF
:101CC000FF8920810F8C02C0880F991F0A94E2F7C8
:101CD000809582238083DF91CF91FF90EF90DF90FA
:101CE000CF900895EAE6F5E01382128288EE93E041
:101CF000A0E0B0E084839583A683B7838AEB92E06B
:101D00009183808380ED95E0958784878CE895E0CA
:101D10009787868785EC90E0918B808B84EC90E0B0
:101D2000938B828B80EC90E0958B848B81EC90E0A0
:101D3000978B868B82EC90E0918F808F86EC90E081
:101D4000938F828F84E0848F83E0858F87E0868FF6
:101D500085E0878F81E080A30895A0E0B0E0E3EB09
:101D6000FEE00C94B7126C01EB017B01E40EF51E52
:101D700000E010E0CE15DF0561F06991D601ED912C
:101D8000FC910190F081E02DC6010995080F191F03
:101D9000F1CFC801CDB7DEB7E8E00C94D3120E94B2
:101DA00064110E947B0BCAEADDE00E94FA0B2097C7
:101DB000E1F30E94AA0DF9CF0F931F93CF93DF9306
:101DC0008230910510F482E090E0E0911F06F091DE
:101DD000200620E030E0A0E0B0E0309719F140812B
:101DE00051810281138148175907C8F0841795075C
:101DF00069F4109731F012960C93129713961C9376
:101E000027C000931F061093200622C0211531051C
:101E100019F04217530718F49A01BD01EF01DF01D1
:101E2000F801DBCF21153105F9F0281B390B2430DF
:101E3000310580F48A819B816115710521F0FB01D8
:101E40009383828304C09093200680931F06FE0133
:101E5000329644C0FE01E20FF31F8193919322500A
:101E60003109398328833AC020911D0630911E061E
:101E7000232B41F4209102013091030130931E067F
:101E800020931D062091000130910101211531059B
:101E900041F42DB73EB74091040150910501241B38
:101EA000350BE0911D06F0911E06E217F307A0F432
:101EB0002E1B3F0B2817390778F0AC014E5F5F4FA0
:101EC0002417350748F04E0F5F1F50931E064093AE
:101ED0001D068193919302C0E0E0F0E0CF01DF9115
:101EE000CF911F910F910895CF93DF93009709F43D
:101EF00081C0FC01329713821282A0911F06B0911B
:101F00002006109781F420813181820F931F209148
:101F10001D0630911E062817390751F5F0931E064D
:101F2000E0931D0667C0ED0120E030E0CE17DF072B
:101F300040F44A815B819E0141155105F1F0EA01AF
:101F4000F5CFD383C28340815181840F951FC81779
:101F5000D90759F488819981840F951F029691833E
:101F600080838A819B81938382832115310529F4A3
:101F7000F0932006E0931F063DC0E901FB83EA834E
:101F800049915991C40FD51FEC17FD0761F4808169
:101F90009181840F951F0296E9019983888382813C
:101FA00093819B838A83E0E0F0E012968D919C916F
:101FB0001397009719F0FD01DC01F7CF8D919C91EB
:101FC00011979D012E5F3F4F820F931F20911D0699
:101FD00030911E062817390769F4309729F41092BA
:101FE000200610921F0602C013821282B0931E06B2
:101FF000A0931D06DF91CF910895A0E0B0E0E3E04B
:10200000F0E10C94B112EC01009721F4CB010E9495
:10201000DC0EB4C0FC01E60FF71F9C012250310911
:10202000E217F30708F4A8C0D9010D911C9111978C
:1020300006171707B0F00530110508F49BC0C8015A
:1020400004978617970708F495C002501109061BDC
:10205000170B019311936D937C93CF010E94740F22
:1020600089C05B01A01AB10A4C01800E911EA0919B
:102070001F06B0912006612C712CE12CF12C1097D9
:1020800009F446C08D919C911197A815B905B1F539
:102090006C0142E0C40ED11CCA14DB0478F14C017F
:1020A0008A189B08640142E0C40ED11C1296BC90B1
:1020B00012971396AC91B5E0CB16D10440F0B282E2
:1020C000A38391828082D9016D937C9309C00E5FB6
:1020D0001F4F800F911FF90191838083EB2DFA2F01
:1020E000E114F10431F0D7011396FC93EE931297AB
:1020F00041C0F0932006E0931F063CC068167906A5
:1021000008F43C017D0112960D90BC91A02DB7CF33
:1021100080911D0690911E0688169906E1F46616B8
:102120007706C8F48091000190910101009741F475
:102130008DB79EB74091040150910501841B950B0A
:10214000E817F907C8F4F0931E06E0931D06F9019D
:10215000718360830FC0CB010E94DC0E7C0100976D
:1021600059F0A801BE010E942B13CE010E94740FEA
:10217000C70104C0CE0102C080E090E0CDB7DEB759
:10218000EEE00C94CD121F920F920FB60F92112415
:102190002F933F938F939F93AF93BF938091150697
:1021A00090911606A0911706B0911806309114066A
:1021B00023E0230F2D3720F40196A11DB11D05C08A
:1021C00026E8230F0296A11DB11D209314068093CB
:1021D000150690931606A0931706B09318068091E3
:1021E000190690911A06A0911B06B0911C06019643
:1021F000A11DB11D8093190690931A06A0931B068A
:10220000B0931C06BF91AF919F918F913F912F91F9
:102210000F900FBE0F901F9018952FB7F8946091F4
:1022200015067091160680911706909118062FBF1B
:1022300008953FB7F8948091190690911A06A091DD
:102240001B06B0911C0626B5A89B05C02F3F19F0B0
:102250000196A11DB11D3FBFBA2FA92F982F882726
:10226000820F911DA11DB11DBC01CD0142E0660F81
:10227000771F881F991F4A95D1F70895CF92DF9253
:10228000EF92FF92CF93DF936B017C010E941911B3
:10229000EB01C114D104E104F10479F00E94191199
:1022A0006C1B7D0B683E7340A0F381E0C81AD10817
:1022B000E108F108C851DC4FECCFDF91CF91FF90DE
:1022C000EF90DF90CF900895789484B5826084BDBC
:1022D00084B5816084BD85B5826085BD85B581602A
:1022E00085BDEEE6F0E0808181608083E1E8F0E08A
:1022F0001082808182608083808181608083E0E8B9
:10230000F0E0808181608083E1EBF0E08081846097
:102310008083E0EBF0E0808181608083EAE7F0E099
:1023200080818460808380818260808380818160FD
:1023300080838081806880831092C10008958330FB
:1023400081F028F4813099F08230A1F00895863030
:10235000A9F08730B9F08430D1F4809180008F7D6E
:1023600003C0809180008F7780938000089584B5AA
:102370008F7702C084B58F7D84BD08958091B000B1
:102380008F7703C08091B0008F7D8093B000089557
:10239000CF93DF9390E0FC01E458FF4F2491FC01C0
:1023A000E057FF4F8491882361F190E0880F991FD7
:1023B000FC01E854FF4FC591D491FC01E255FF4F59
:1023C000A591B491611109C09FB7F89488812095B7
:1023D00082238883EC912E230BC0623061F49FB777
:1023E000F8948881322F309583238883EC912E2BAB
:1023F0002C939FBF06C08FB7F894E8812E2B2883BB
:102400008FBFDF91CF9108951F93CF93DF93282F34
:1024100030E0F901E859FF4F8491F901E458FF4F8A
:10242000D491F901E057FF4FC491CC23C1F0162F8E
:1024300081110E949F11EC2FF0E0EE0FFF1FE2557B
:10244000FF4FA591B4919FB7F894111104C08C91DE
:10245000D095D82302C0EC91DE2BDC939FBFDF9197
:10246000CF911F910895CF93DF93282F30E0F9018A
:10247000E859FF4F8491F901E458FF4FD491F901D5
:10248000E057FF4FC491CC2391F081110E949F111E
:10249000EC2FF0E0EE0FFF1FEC55FF4FA591B4912C
:1024A000EC91ED2381E090E021F480E002C080E037
:1024B00090E0DF91CF910895DB018F939F930E946D
:1024C000A212BF91AF91A29F800D911DA39F900D6D
:1024D000B29F900D1124089597FB072E16F40094D7
:1024E00007D077FD09D00E94021307FC05D03EF407
:1024F000909581959F4F0895709561957F4F0895B0
:10250000A1E21A2EAA1BBB1BFD010DC0AA1FBB1FF7
:10251000EE1FFF1FA217B307E407F50720F0A21B69
:10252000B30BE40BF50B661F771F881F991F1A94D6
:1025300069F760957095809590959B01AC01BD0100
:10254000CF0108950E941C13A59F900DB49F900D7C
:10255000A49F800D911D112408952F923F924F92B8
:102560005F926F927F928F929F92AF92BF92CF9223
:10257000DF92EF92FF920F931F93CF93DF93CDB72C
:10258000DEB7CA1BDB0B0FB6F894DEBF0FBECDBFA4
:1025900009942A88398848885F846E847D848C8475
:1025A0009B84AA84B984C884DF80EE80FD800C817E
:1025B0001B81AA81B981CE0FD11D0FB6F894DEBF61
:1025C0000FBECDBFED01089597FB10F816940008DB
:1025D0000F93083098F00850232F342F452F562F93
:1025E000672F782F892F902DF4CF05949795879595
:1025F0007795679557954795379527950A95AAF743
:102600000F910895AA1BBB1B51E107C0AA1FBB1F56
:10261000A617B70710F0A61BB70B881F991F5A956E
:10262000A9F780959095BC01CD010895EE0FFF1F8D
:102630000590F491E02D0994A29FB001B39FC001D1
:10264000A39F700D811D1124911DB29F700D811DDE
:102650001124911D0895FB01DC0102C001900D922F
:0C26600041505040D8F70895F894FFCF87
:10266C000000210680007374645F6D7367732F54D0
:10267C00696D6500636437313636633734633535DD
:10268C00326333313166626363326665356137625A
:10269C006332383900726F7373657269616C5F6D88
:1026AC007367732F546F706963496E666F00306186
:1026BC006435316638386663343438393266386399
:1026CC0031303638343037373634363030350072B6
:1026DC006F7373657269616C5F6D7367732F4C6F89
:1026EC0067003131616264373331633235393333EA
:1026FC0032363163643631383362643132643632A7
:10270C0039350039663065393862646136353938A7
:10271C00313938366464663533616661376134301B
:10272C0065343900637573746F6D5F6D7367732FE8
:10273C004163747561746F727353746174650034A2
:10274C0062393964643163653338653661333933E2
:10275C00316462656164393933363064373137003E
:10276C004D6573736167652066726F6D2064657665
:10277C006963652064726F707065643A206D65736F
:10278C0073616765206C6172676572207468616E35
:10279C00206275666665722E002F616374756174B4
:1027AC006F72735F636D6400000000008D00B100F8
:1027BC00F700FA0000000000FF03B705FD00000160
:1027CC0000000000CF0361050301060100000000BA
:1027DC00F602800609010C0100000000FF01B8049C
:1027EC000F011201000000003201750923010000E5
:1027FC0000004B0528012C012F01726F7373657259
:10280C0069616C5F6D7367732F5265717565737455
:10281C00506172616D00000000002D0DAD0ED60CE4
:06282C00020DE60C220D76
:00000001FF
