:100000000C945E000C9489110C94B6110C94690345
:100010000C9486000C941F030C9486000C9406022A
:100020000C9486000C9486000C9486000C94860038
:100030000C9486000C9486000C9486000C94860028
:100040000C94CA130C9486000C94FD0F0C94401071
:100050000C9486000C9486000C9486000C94860008
:100060000C9486000C94860000000007000201003A
:100070000003040600000000000000000102040864
:100080001020408001020408102001020408102002
:10009000040404040404040402020202020203032E
:1000A0000303030300000000250028002B000000CC
:1000B0000000240027002A007E0EFF1011241FBE1E
:1000C000CFEFD8E0DEBFCDBF13E0A0E0B1E0E0E9C4
:1000D000FFE202C005900D92AE30B107D9F726E0DD
:1000E000AEE0B3E001C01D92A83AB207E1F710E01C
:1000F000CEE5D0E004C02197FE010E94A817CC35C0
:10010000D107C9F70E945C110C94C6170C9400002B
:10011000DC01FB0112968C911297808313968C91CF
:100120001397818314968C911497828315968C91E2
:100130001597838316968C911697848317968C91C6
:100140001797858318968C911897868319968C91AA
:10015000878388E090E00895FC01DB014C9150E03A
:1001600060E070E0428353836483758311968C91C1
:100170001197582B428353836483758312968C9115
:100180001297682B428353836483758313968C91F3
:100190001397782B428353836483758314964C9111
:1001A000149750E060E070E0468357836087718762
:1001B00015968C911597582B4683578360877187C6
:1001C00016968C911697682B4683578360877187A4
:1001D00017968C91782B468357836087718788E0C8
:1001E00090E0089586E091E0089584E191E008951B
:1001F00085E391E008958EE491E008958FE691E023
:10020000089582E891E0089581EE92E0089583EAEE
:1002100091E00895FB01DC0112964C911297139620
:100220003C91139714962C91149715968C914083BA
:1002300031832283838384E090E00895FB01408131
:10024000518162817381FC0142835383648375838E
:1002500084E090E0089584EC91E0089585ED91E0CC
:10026000089586EF91E0089581E192E0089589B1C3
:1002700082FB882780F98093C20508958A5A9D4F92
:10028000FC0180810895A5E0B0E0E9E4F1E00C9480
:100290004717643671053CF0FC01EA5AFD4F208196
:1002A000222309F477C0DA017B018C01BC01695C6F
:1002B0007E4FED91FC910190F081E02DCA010995EE
:1002C000680120EDC21A2EEFD20A2FEFD6012C932F
:1002D000F801EF5CFE4F2EEF20833196808331963C
:1002E00090833196292F280F209520833196E08224
:1002F0001696FC9245E050E020E030E0DC011696D6
:10030000A417B50734F06191260F311D4F5F5F4F81
:10031000F7CF7C01B8E0EB0EF11C800F911FFC01C0
:10032000E95CFE4F20952083E9E1EE16E1E0FE0650
:10033000BCF45601C5018C199D098E159F056CF5FD
:10034000D80112968D919C911397F50161915F01EF
:10035000DC01ED91FC910190F081E02D0995EACF4F
:100360008BEA92E09A83898383E08B8382E392E035
:100370009D838C83D801ED91FC910190F081E02D5B
:10038000AE014F5F5F4F67E070E0C80109958FEFE6
:100390009FEF04C080E090E001C0C7012596EAE02D
:1003A0000C946317AB01FC01A681B7816481758150
:1003B000ED91FC9111970190F081E02DCD0109950F
:1003C000089582E08093B00095E09093B1009CE79F
:1003D0009093B300809370000895E8E6F0E0808188
:1003E00081608083ABE6B0E08C9188608C938C91C7
:1003F00080618C93808184608083EDE6F0E0808171
:100400008061808380818062808308951F920F9233
:100410000FB60F921124CF92DF92EF92FF920F93BB
:100420001F932F933F934F935F936F937F938F937C
:100430009F93AF93BF93CF93DF93EF93FF938091FD
:10044000D1059091D20501969093D2058093D10564
:100450008091D1059091D205883C910509F0D6C0D4
:100460006091E9057091EA058091E5059091E605B6
:100470006B01C81AD90A6091E7057091E80580916F
:10048000E3059091E4058B01081B190B61E0C11491
:10049000D10409F460E0E62EF12C0115110521F4D8
:1004A000C0E0D0E060E002C0C1E0D0E08DE00E949A
:1004B000E514B60180E090E00E94F3152BED3FE0DB
:1004C00049EC50E40E94811620E030E040EA51E41B
:1004D0000E9481152DEC3CEC4CE45EE30E948115FA
:1004E0006093DB057093DC058093DD059093DE055A
:1004F000B80180E090E00E94F3152BED3FE049EC5D
:1005000050E40E94811620E030E040EA51E40E946D
:1005100081152DEC3CEC4CE45EE30E948115609368
:10052000DF057093E0058093E1059093E20560910B
:10053000DB057091DC058091DD059091DE052DE3F2
:100540003AE047E55DE30E9481166093D30570931E
:10055000D4058093D5059093D6056091DF05709101
:10056000E0058091E1059091E2052DE33AE047E551
:100570005DE30E9481166093D7057093D805809340
:10058000D9059093DA05CE0DDF1D209701F160911A
:10059000D7057091D8058091D9059091DA05209101
:1005A000D3053091D4054091D5055091D6050E94D0
:1005B00015156B017C01BE0180E090E00E94F315EF
:1005C0009B01AC01C701B6010E94811503C060E028
:1005D00070E0CB016093CD057093CE058093CF057D
:1005E0009093D0058091E9059091EA059093E605F6
:1005F0008093E5058091E7059091E8059093E405E7
:100600008093E3051092D2051092D105FF91EF91EE
:10061000DF91CF91BF91AF919F918F917F916F911A
:100620005F914F913F912F911F910F91FF90EF900C
:10063000DF90CF900F900FBE0F901F9018951F92D4
:100640000F920FB60F9211242F933F934F935F9306
:100650008F939F9399B18091EC0594FB442740F9C7
:1006600050E090E04817590779F08091E9059091A2
:10067000EA0501969093EA058093E9059091EC05CF
:1006800081E089278093EC0599B18091EB0595FB7A
:10069000222720F930E090E02817390779F080917F
:1006A000E7059091E80501969093E8058093E705AA
:1006B0009091EB0581E089278093EB059F918F91C5
:1006C0005F914F913F912F910F900FBE0F901F9010
:1006D00018951F920F920FB60F9211240F931F932C
:1006E0002F933F934F935F936F937F938F939F933A
:1006F000AF93BF93CF93DF93EF93FF930E942014A8
:1007000033B12091CC0533FB002700F910E030E035
:100710000217130729F11B9B05C07093CB0560934B
:10072000CA0518C02091CA053091CB05AB01421B08
:10073000530B9A01213D57E0350720F02091C80561
:100740003091C9053093C9052093C8051092CB0597
:100750001092CA053091CC0521E023272093CC05C7
:1007600033B12091C70532953170C32F30E0D32FBC
:1007700030E0C217D30719F11C9B05C07093C60562
:100780006093C50516C02091C5053091C605621B52
:10079000730B613D47E0740720F06091C3057091D1
:1007A000C4057093C4056093C3051092C6051092EA
:1007B000C5059091C70581E089278093C705FF9102
:1007C000EF91DF91CF91BF91AF919F918F917F91E9
:1007D0006F915F914F913F912F911F910F910F90CA
:1007E0000FBE0F901F901895CF92DF92EF92FF925D
:1007F00020E030E06A017B01022E04C0F694E79409
:10080000D794C7940A94D2F7FC01C192CF01285F14
:100810003F4F2032310571F7FF90EF90DF90CF907E
:100820000895A0E0B0E0E7E1F4E00C9446177C0105
:10083000EB01DC011296EC9112971396BC90139782
:100840001496CC9014971596DC90159716961C91DB
:1008500016971796AC90179718969C90189719961C
:10086000FC911997E8832E2F3B2DA601612F7A2D3D
:10087000892D9F2F08E00E94781729832E2F3B2D6A
:10088000A601612F7A2D892D9F2F00E10E947817F4
:100890002A832E2F3B2DA601612F7A2D892D9F2F84
:1008A00008E10E9478172B832E2F3B2DA601612F84
:1008B0007A2D892D9F2F00E20E9478172C832E2FEE
:1008C0003B2DA601612F7A2D892D9F2F08E20E94D2
:1008D00078172D832E2F3B2DA601612F7A2D892D80
:1008E0009F2F00E30E9478172E832E2F3B2DA60109
:1008F000612F7A2D892D9F2F08E30E9478172F836F
:100900001A96EC911A971B96BC901B971C96CC904C
:100910001C971D96DC901D971E961C911E971F9686
:10092000AC901F9750969C9050975196FC91519780
:10093000E8872E2F3B2DA601612F7A2D892D9F2F21
:1009400008E00E94781729872E2F3B2DA601612FE2
:100950007A2D892D9F2F00E10E9478172A872E2F4C
:100960003B2DA601612F7A2D892D9F2F08E10E9432
:1009700078172B872E2F3B2DA601612F7A2D892DDD
:100980009F2F00E20E9478172C872E2F3B2DA60167
:10099000612F7A2D892D9F2F08E20E9478172D87CD
:1009A0002E2F3B2DA601612F7A2D892D9F2F00E33D
:1009B0000E9478172E872E2F3B2DA601612F7A2DAE
:1009C000892D9F2F08E30E9478172F8752960D904C
:1009D000BC91A02DFD0101900020E9F731978F0116
:1009E0000A1B1B0BA80160E070E0CE0140960E943C
:1009F000F403F70162897389A801CE0144960E942D
:100A0000BD17C8014496CDB7DEB7EBE00C94621772
:100A10004F925F926F927F92AF92BF92CF92DF928E
:100A2000EF92FF920F931F93CF93DF93EC018B0113
:100A30008A81FB0180838B8181838C8182838D817C
:100A40008383DB0140E050E0BA01E4E0F0E014967B
:100A5000CA80DB80EC80FD80CF0104964C155D05DB
:100A60006E057F05C8F42A853B85E20FF31F349796
:100A7000D080F18032812381DC921196FC92119713
:100A800012963C93129713962C931397FC014F5F89
:100A90005F4F6F4F7F4FDBCF5F01A00EB11E2C85E4
:100AA000F50120832D8521832E8522832F852383A5
:100AB000D50140E050E0BA01CC84DD84EE84FF84AF
:100AC0009C012C5F3F4F4C155D056E057F05F8F4CA
:100AD000CD018A199B09EC88FD888E0D9F1DFC01B4
:100AE000D080E180F28083811496DC921497159671
:100AF000EC9215971696FC92169717968C9317976B
:100B0000C9014F5F5F4F6F4F7F4F1496D5CFF801EC
:100B1000E80FF91F8E8980838F898183888D828376
:100B2000898D83837901A12CB12C412C512C320168
:100B30008E899F89A88DB98D481659066A067B064D
:100B400080F5EC8DFD8DEA0DFB1DA081B181FD01CD
:100B500001900020E9F731976F01CA1ADB0AA6015C
:100B600060E070E0C8018E0D9F1D0E94F403F4E068
:100B7000EF0EF11CEC8DFD8DEA0DFB1D6081718186
:100B8000A601C8018E0D9F1D0E94BD17EC0CFD1C17
:100B90008FEF481A580A680A780AE2E0AE0EB11CD4
:100BA000C7CFC701DF91CF911F910F91FF90EF90B9
:100BB000DF90CF90BF90AF907F906F905F904F90FD
:100BC0000895EF92FF920F931F93CF93DF938C01C1
:100BD0007B01DC0112962C911297FB012193CF012E
:100BE0001396ED91FC911497EF0109900020E9F71D
:100BF0002197CE1BDF0BAE0160E070E00E94F40392
:100C0000D80113966D917C911497AE01C70105969A
:100C10000E94BD17CE010596CDB7DEB7E6E00C9475
:100C20006717A0E0B0E0E7E1F6E00C9449177C011B
:100C30008B01DC0112968C911297FB018083139635
:100C40008C91139781831496ED91FC911597EF0188
:100C500009900020E9F72197CE1BDF0BAE0160E081
:100C600070E0C80102960E94F403D70114966D91BA
:100C70007C911597AE01C80106960E94BD17CE0162
:100C80000696F701A681B781FD0101900020E9F7E2
:100C900031976F01CA1ADB0AA60160E070E0800F8D
:100CA000911F0E94F4032A96D70116966D917C91AC
:100CB0001797A601C8018C0F9D1F0E94BD17CC0D70
:100CC000DD1DD7011896ED91FC911997DF010D906C
:100CD0000020E9F711976D01CE1ADF0AA60160E046
:100CE00070E0C8018C0F9D1F0E94F4032496F70149
:100CF00060857185A601C8018C0F9D1F0E94BD17DC
:100D0000C6018C0F9D1FD7011A966C911A971B96DE
:100D10004C911B971C963C911C971D962C91F801A9
:100D2000E80FF91F60834183328323830496CDB794
:100D3000DEB7E8E00C946517CF92DF92EF92FF9256
:100D4000FC011082118212821382DB0120E030E06C
:100D50004D9150E0022E02C0440F551F0A94E2F755
:100D6000052E000C660B770BC080D180E280F380EB
:100D70004C295D296E297F294083518362837383C7
:100D8000285F3F4F2032310519F7FF90EF90DF9039
:100D9000CF9008954F925F926F927F928F929F9221
:100DA000AF92BF92EF92FF920F931F93CF93DF9377
:100DB00000D000D0CDB7DEB77C018B01FB01819163
:100DC000BF01F7018283CE0101960E949C068981B2
:100DD0009A81AB81BC814C015D01F5E08F0E911CC5
:100DE000A11CB11CA8014C5F5F4FFA0125E030E067
:100DF0002901612C712C481459046A047B0428F4DD
:100E0000618161932F5F3F4FF3CFF801E80FF91F26
:100E10001482F7015483438305960F900F900F902F
:100E20000F90DF91CF911F910F91FF90EF90BF90A6
:100E3000AF909F908F907F906F905F904F900895AC
:100E4000ACE0B0E0E6E2F7E00C9441177C018B01E6
:100E5000DB018C9190E0F7019383828311962C91B2
:100E6000922B938382836E5F7F4FCE0109960E94FF
:100E70009C0689849A84AB84BC8424013501F6E005
:100E80004F0E511C611C711C98012B5F3F4FF901E3
:100E900086E090E0AC0160E070E044155505660521
:100EA000770520F4418141930196F4CFF801E80DD4
:100EB000F91D1582D70115963C932E931497B40112
:100EC0006A5F7F4F600F711FCE0105960E949C06DE
:100ED000BAE08B0E911C4D805E806F807884A401F7
:100EE000092C000C660B770B440D551D661D771DF4
:100EF000D801A80DB91DCD01801B910B5C01C12C3F
:100F0000D12CA416B506C606D70628F48D91FD018E
:100F100032978083F0CF5401A40CB51CB8016A0D40
:100F20007B1DFB0131971082C4010197800F911F37
:100F3000F70197838683CE0101960E949C06950156
:100F40002C5F3F4F89819A81AB81BC812901032E9F
:100F5000000C66087708480E591E6A1E7B1EF501B4
:100F60003396E00FF11FA9014A01A12CB12C841482
:100F70009504A604B70428F4618161934F5F5F4F25
:100F8000F3CF820F931FF801E80FF91FDF011197CC
:100F90001C9221503109020F131FD70119961C937F
:100FA0000E9318972181428150E060E070E0BA0111
:100FB00055274427522B2081422B2381722BF70186
:100FC000428753876487758704962C96E0E10C94DA
:100FD0005D17A0E1B0E0EFEEF7E00C943F178C0155
:100FE0006B01DB018D909D90AD90BC90FC018281E6
:100FF0009381A481B58188159905AA05BB0570F474
:10100000B401660F771F660F771F828593850E9454
:101010000413D8011B969C938E931A97F801828231
:101020009382A482B5829601812C912C540144E0D4
:1010300050E0B8016A5F7F4F2C5F3F4FF80182811B
:101040009381A481B581FA0134961F01881699060F
:10105000AA06BB0650F5D9011196FC90119712967D
:101060008C9190E0A0E0B0E0DC01992788279F29CF
:10107000F901F0808F29F380BF29F80186839783D7
:10108000A087B187DA01A101149782859385A80F03
:10109000B91F84E0FB0101900D928A95E1F7FFEF03
:1010A0008F1A9F0AAF0ABF0AC7CF4601840E951E4A
:1010B000D4018C9111969C91119712964C90129795
:1010C000512C612C712C320155244424592A482A70
:1010D00013968C91782A5F01F80184859585A68501
:1010E000B78584159505A605B70570F4B201660F9E
:1010F000771F660F771F848995890E940413D80192
:1011000055969C938E935497F8014486558666862F
:101110007786C401412C512C32019801205F3F4F4A
:10112000D8011C964D915D916D917C911F97F501B1
:101130003496441655066606770698F5DC01159632
:10114000FC90159716964C91169750E060E070E071
:10115000BA01552744275F291496FC9014974F290C
:101160001796FC907F29D80150964D935D936D930F
:101170007C9353975F01AC014819590954960D901F
:10118000BC91A02DA40FB51F44E0F90101900D9270
:101190004A95E1F7BFEF4B1A5B0A6B0A7B0A04968C
:1011A000BFCFD601AA0DBB1D8C9111969C911197B2
:1011B00012968C901297912CA12CB12C5401992449
:1011C0008824992A882A13968C91B82A7F01F801DD
:1011D00086899789A08DB18D88159905AA05BB05CB
:1011E00060F4B401660F771F848D958D0E940413FF
:1011F000D8015D969C938E935C97F801868A978AB6
:10120000A08EB18E212C312C812C912C540198016F
:10121000265E3F4F3A872987F80186899789A08DF6
:10122000B18D88169906AA06BB0608F05FC0B60104
:101230006E0D7F1DCE0101960E949C0697012C5FCA
:101240003F4F388B2F8749815A816B817C81C9013F
:10125000330FAA0BBB0B2C013D01440E551E661E1D
:10126000771E4B865C866D867E8623E0E20EF11C3F
:10127000F601EE0DFF1D2F853889C901A0E0B0E011
:101280004B845C846D847E8484159505A605B70522
:1012900028F4A181A1932F5F3F4FEFCF6F8478880F
:1012A000460D571DF601E40FF51F31971082C3015B
:1012B00001978C0D9D1DD8015B969C938E935A9738
:1012C0007A015C96ED91FC915D97E20DF31DA98585
:1012D000BA858D919C9191838083BFEF8B1A9B0A75
:1012E000AB0ABB0AE2E02E0E311C96CFC701609616
:1012F000E2E10C945B174F925F926F927F928F9214
:101300009F92AF92BF92EF92FF920F931F93CF9352
:10131000DF9300D000D0CDB7DEB77C018B01FB019D
:101320008081F7018283FB018181F7018383FB01C7
:101330008281F7018483FB018381F7018583FB01AF
:101340008481F7018683FB018581F7018783FB0197
:101350008681F7018087FB018781F7018187FB0187
:101360008085F7018287FB018185F7018387FB0177
:101370008285F7018487FB018385F7018587FB015F
:101380008485F7018687FB018585F7018787FB0147
:101390008685F701808BFB018785F701818B605F74
:1013A0007F4FCE0101960E949C0689819A81AB8174
:1013B000BC814C015D01F4E18F0E911CA11CB11C9C
:1013C000A8014D5E5F4FFA0124E130E02901612C54
:1013D000712C481459046A047B0428F461816193D8
:1013E0002F5F3F4FF3CFF801E80FF91F138AF70182
:1013F000538B428B44960F900F900F900F90DF917C
:10140000CF911F910F91FF90EF90BF90AF909F9061
:101410008F907F906F905F904F900895AAE0B0E01A
:10142000E4E1FAE00C944D178C0183E992E09A8391
:1014300089831B821C821D821E821F821886198648
:101440001A86D801ED91FC910190F081E02DAE015A
:101450004F5F5F4F6AE070E0C80109950E94141465
:10146000F80160877187828793872A96E4E00C945D
:101470006917AEE0B0E0EFE3FAE00C9445178C0199
:101480008FE992E09A8389831C821B828AE692E02C
:101490009E838D8398878F839A8789871B861C8676
:1014A0001D861E86780188EBE81A8DEFF80A680120
:1014B000A4EBCA1AADEFDA0A88E1882E9924939436
:1014C000A12CB12CD701ED91FC913097A9F1848129
:1014D00095819C838B83808191819E838D83828182
:1014E0009381DC01ED91FC910480F581E02D09955B
:1014F00098878F83D701ED91FC9182819381DC01E4
:10150000ED91FC910680F781E02D09959A878987F6
:101510008B869C86AD86BE86D701ED91FC91608559
:101520007185D801ED91FC910190F081E02DAE0123
:101530004F5F5F4FC8010995B2E0EB0EF11CEC1450
:10154000FD0409F0BFCFF801EA5AFD4F81E0808326
:101550002E96ECE00C946117AAE0B0E0E2EBFAE022
:101560000C9445178C015B0183E992E09A8389838F
:101570001B821C821D821E821F82188619861A8673
:101580000E941414F801C084D184E284F3849B0186
:10159000AC012C193D094E095F0969017A01B501B9
:1015A000CE0101960E94AC0088EE882E83E0982E32
:1015B000A12CB12CC701B601A50194010E941217FC
:1015C000CB80DC80ED80FE80C20ED31EE41EF51EB3
:1015D000CB82DC82ED82FE829B01AC0160E472E48E
:1015E0008FE090E00E94EE16CF80D884E984FA84E0
:1015F000DC01CB018C0D9D1DAE1DBF1D8F83988717
:10160000A987BA870E941414CB80DC80ED80FE800D
:1016100031E0C31AD108E108F108A50194010E9444
:101620001217C21AD30AE40AF50AF801C486D5864D
:10163000E686F786CF80D884E984FA84F6E3DF1A59
:10164000F5E6EF0AF4ECFF0A9B01AC0160E472E4FA
:101650008FE090E00E94EE16C61AD70AE80AF90A4F
:10166000F801C08AD18AE28AF38AB801605F7F4FAD
:10167000C8010C960E943B0F0E941414F801E55A11
:10168000FD4F60837183828393832A96ECE00C94F0
:101690006117A0E1B0E0EFE4FBE00C943F17988BFA
:1016A0008F870E9414144B015C012F853889255ABD
:1016B0003D4F3E832D83F90180819181A281B381C9
:1016C000A5019401281B390B4A0B5B0BDA01C901F8
:1016D000893F9A42A105B10528F0EF85F889EA5AB9
:1016E000FD4F10820F851889045B1D4FD8018D9125
:1016F0009C91892B81F0EF85F889E15AFD4F80811B
:101700009181A281B38188159905AA05BB0518F4BA
:10171000F801118210826F847888FCEA6F1AFDEF5D
:101720007F0A2F853889205B3D4F3A832983CF84F8
:10173000D88838E1C30ED11C4F8558894A5A5D4F6D
:1017400058874F838F8598898C599D4F9A878987B1
:10175000AF85B889AD59BD4FBC87AB87EF84F8889A
:10176000B2EBEB1ABDEFFB0AEF85F889EE5AFD4F9D
:10177000FC83EB832F853889215A3D4F3E872D8787
:101780001401250134E1230E311C411C511CEF854D
:10179000F88984899589A689B789892B8A2B8B2B0F
:1017A00089F4AF85B88912968D919C911397DC01CD
:1017B000ED91FC910680F781E02D09959C0197FF42
:1017C00015C03CC10E941414DC01CB018819990991
:1017D000AA09BB09EF85F889248935894689578983
:1017E000281739074A075B07E0F650C1D3018D91EE
:1017F0009C911197820F931F8D939C93F8014081C8
:10180000518147305105D9F4AB81BC818D919C91B8
:101810001197AC014F5F5F4F4D935C93EF85F88953
:10182000E80FF91F208FF701808191810197918343
:101830008083892B09F0ABCF88E090E06FC0411521
:10184000510529F52F3F310569F481E090E0F80159
:1018500091838083AD85BE852D923D924D925C92A1
:10186000139795CF0E941414DC01CB0188199909B4
:10187000AA09BB0989389341A105B10508F487CFAE
:101880002F8538892A5A3D4FD9011C92FFC041301B
:10189000510591F42E3F310519F482E090E02EC0FD
:1018A00011821082EF81F8858081811170CF8F8540
:1018B00098890E940E0A6BCF4230510581F4D701FE
:1018C0002D933C93EB81FC811182108283E090E0A8
:1018D000D8018D939C93F3013183208358CF4330FB
:1018E000510581F4322F2227D7018D919C911197B8
:1018F000280F391F2D933C9384E090E0F8019183E9
:10190000808345CF4430510589F460E071E00E9446
:10191000FE168F3F910531F485E090E0D8018D935C
:101920009C9335CFF8011182108231CF453051059B
:1019300069F4A981BA812D933C9346E050E0F80107
:1019400051834083D3012D933C9321CF46305105E1
:1019500099F4322F2227E981FA8180819181280F21
:10196000391F31832083E7E0F0E0D801ED93FC9349
:10197000D7018D919C915DCF4830510509F007CF7B
:10198000F8011182108260E071E00E94FE168F3F24
:10199000910509F0FCCEA981BA818D919C910097A7
:1019A000C9F48F8598890E940E0A8F8598890E94B4
:1019B000390AEF85F889E95AFD4F80829182A28227
:1019C000B382ED81FE8180829182A282B3828FEF09
:1019D0009FEF61C08A30910531F4B6018F859889F7
:1019E0000E94AC0AD4CE8630910551F4B6018985A7
:1019F0009A850E94E90781E0AB85BC858C93C7CEB0
:101A00008B30910521F4EF81F8851082C0CEFC0166
:101A1000EE53FF4FEE0FFF1F2F853889E20FF31FA4
:101A200080819181009709F4B2CEDC01ED91FC91A7
:101A30000190F081E02DB6010995A9CEEF85F889D6
:101A4000EA5AFD4F8081882321F10F851889095AB0
:101A50001D4FF80180819181A281B381A50194017C
:101A6000281B390B4A0B5B0BDA01C901853C9940F5
:101A7000A105B10570F08F8598890E940E0AD801E2
:101A80008D929D92AD92BC92139703C08EEF9FEF03
:101A900002C080E090E06096E2E10C945B1760E0A9
:101AA00084E10E94A91460E084E00E94A91460E02F
:101AB00085E00E94A91460E08CE00E94A91460E017
:101AC0008BE00E94A91460E082E00E94A91480E0EB
:101AD00092ECA1E0B0E08093440390934503A0937F
:101AE0004603B093470340E052EC61E070E0809120
:101AF0004203909143030E947B1010928D05109237
:101B00008C0510928F0510928E05109293051092FD
:101B10009205109291051092900580918805909100
:101B20008905892B49F080918A0590918B05892B35
:101B3000E1F481E090E002C080E090E0FC01EC5D27
:101B4000FE4FEE0FFF1FE05CFC4F28E133E03183D6
:101B500020838C599F4F90931D0380931C0380E436
:101B600093E090931F0380931E03809188059091CA
:101B70008905892B49F080918A0590918B05892BE5
:101B8000E1F481E090E002C080E090E0FC01EC5DD7
:101B9000FE4FEE0FFF1FE05CFC4F2EE033E0318381
:101BA00020838C599F4F909313038093120380E4FA
:101BB00093E090931503809314038091960581110F
:101BC00005C080E493E00E94490BF7CF0E94E10139
:101BD0000E94ED010E94370141E050E067E371E0AF
:101BE00082E00E9469110E94141460933C03709378
:101BF0003D0380933E0390933F0308950F931F93FB
:101C00000E94141400913C0310913D0320913E0367
:101C100030913F03DC01CB01801B910BA20BB30B76
:101C200084369105A105B10508F465C02091C3056E
:101C30003091C405832F880F880B20933203309393
:101C4000330380933403809335038093360380936A
:101C5000370380933803809339032091C80530916E
:101C6000C905832F880F880B20932A0330932B03F9
:101C700080932C0380932D0380932E0380932F0356
:101C800080933003809331038091C205811103C09A
:101C900080E792E002C08BE692E090933B03809352
:101CA0003A038091CD059091CE05A091CF05B091DA
:101CB000D0058093240390932503A0932603B0932B
:101CC000270368E273E088E193E00E94D20162E2B8
:101CD00073E08EE093E00E94D20180E493E00E94E2
:101CE000490B0E94141460933C0370933D0380934E
:101CF0003E0390933F031F910F9108958BED92E067
:101D000090934103809340038DEE95E090934303BD
:101D10008093420380E091EEA0E0B0E08093440322
:101D200090934503A0934603B09347031092960502
:101D300087EB92E09093A5058093A4051092A605E9
:101D40001092A7051092A8051092A9051092AF0550
:101D50001092AE051092B0051092B1051092B20526
:101D60001092B3051092B9051092B8051092BA05F9
:101D70001092BB051092BC051092BD051092C105D2
:101D80001092C005109289051092880510928B055B
:101D900010928A05A8E5B3E0E0E7F4E01D92EA17A7
:101DA000FB07E1F788E895E011928E179F07E1F7AE
:101DB0001092540310925503109256031092570339
:101DC0008FEC92E0909329038093280310922A03CA
:101DD00010922B0310922C0310922D0310922E03BD
:101DE00010922F031092300310923103109232039D
:101DF000109233031092340310923503109236037D
:101E00001092370310923803109239038AE692E059
:101E100090933B0380933A0383EC92E090932303E7
:101E2000809322031092240310922503109226031C
:101E30001092270387E792E0909319038093180389
:101E400088E293E090931B0380931A03109221037E
:101E50001092200388E892E090930F0380930E0382
:101E600082E293E090931103809310031092170382
:101E7000109216030895A0E0B0E0E1E4FFE00C94B6
:101E800049178C01EB01688179818A819B8120E06F
:101E90003AEC4AE95BE30E941217F801C080D18056
:101EA000E280F380C20ED31EE41EF51EC082D182F2
:101EB000E282F382688379838A839B83CDB7DEB71E
:101EC000E8E00C946517FC0124853585F901E05C98
:101ED000FF4F80819181329620813181821B930B4B
:101EE0008F7399270895DC011C96ED91FC911D9745
:101EF000DF01A05CBF4F2D913C91119712968D91FF
:101F00009C9111972817390739F08D919C91E80F12
:101F1000F91F808190E008958FEF9FEF0895FC01F5
:101F2000A485B585FD01E05CFF4F208131813296AB
:101F3000808191812817390779F080819181A80FDC
:101F4000B91F8C91208131812F5F3F4F2F73332731
:101F50003183208390E008958FEF9FEF0895FC0177
:101F600081A1882329F0A489B5898C9186FFFBCFB4
:101F700011A208950F931F93CF93DF93FC01A685C1
:101F8000B7858D01005C1F4FE8018881998101961A
:101F90008F739927AD014E5B5F4FEA01288139812C
:101FA00028173907D1F3E80128813981A20FB31F1F
:101FB0006C93A685B785A05CBF4F11969C938E93BA
:101FC000A689B7892C9181E090E0078C02C0880F28
:101FD000991F0A94E2F7822B8C9381E081A30488F5
:101FE000F589E02D80818064808381E090E0DF913D
:101FF000CF911F910F91089508951F920F920FB6E0
:102000000F9211242F934F935F938F939F93EF938E
:10201000FF938091C00082FD1CC02091C60080917A
:1020200093069091940640919506509196060196DC
:102030008F7399274817590771F0E0919306F09133
:102040009406ED5AF94F208390939406809393065B
:1020500002C08091C600FF91EF919F918F915F9197
:102060004F912F910F900FBE0F901F9018958DEEEE
:1020700095E00E94630F892B11F00E94FC0F0895D8
:102080001F920F920FB60F9211242F933F938F93AD
:102090009F93EF93FF9320914F06309150068091CC
:1020A0005106909152062817390731F48091C100EA
:1020B0008F7D8093C10014C0E0915106F0915206CB
:1020C000E15FF94F2081809151069091520601966F
:1020D0008F73992790935206809351062093C600E0
:1020E000FF91EF919F918F913F912F910F900FBE94
:1020F0000F901F901895CF92DF92EF92FF92CF939F
:10210000DF93EC016A017B014115514E61057105B8
:1021100009F1EC89FD8981E090E008A002C0880FF8
:10212000991F0A94E2F7808360E079E08DE390E004
:10213000A70196010E941217DA01C9010197A109AE
:10214000B109B695A795979587959C01211580E1D2
:102150003807A8F0EC89FD89108260E874E88EE108
:1021600090E0A70196010E941217DA01C9010197B8
:10217000A109B109B695A795979587959C01E8891E
:10218000F9893083EA89FB89208319A2EE89FF89C6
:10219000408181E090E09C010C8C02C0220F331F33
:1021A0000A94E2F7242B2083EE89FF8940819C0169
:1021B0000D8C02C0220F331F0A94E2F7242B2083D8
:1021C000EE89FF8940819C010E8C02C0220F331FD3
:1021D0000A94E2F7242B2083EE89FF8920810F8C5B
:1021E00002C0880F991F0A94E2F7809582238083AA
:1021F000DF91CF91FF90EF90DF90CF900895EDEEBB
:10220000F5E01382128288EE93E0A0E0B0E08483D0
:102210009583A683B78381E093E09183808383E5F0
:1022200096E0958784878FE096E09787868785EC90
:1022300090E0918B808B84EC90E0938B828B80EC90
:1022400090E0958B848B81EC90E0978B868B82EC71
:1022500090E0918F808F86EC90E0938F828F84E066
:10226000848F83E0858F87E0868F85E0878F81E08C
:1022700080A30895A0E0B0E0E0E4F1E10C944917F8
:102280006C01EB017B01E40EF51E00E010E0CE15C1
:10229000DF0561F06991D601ED91FC910190F0812B
:1022A000E02DC6010995080F191FF1CFC801CDB760
:1022B000DEB7E8E00C9465170E9445140E944F0DAC
:1022C000C7E3D0E10E94FE0D2097E1F30E94371092
:1022D000F9CF8230E8F4E82FF0E0EE0FFF1FE95667
:1022E000F94F71836083813041F0809169008C7F68
:1022F000482B40936900E89A089580916900837F94
:10230000440F551F440F551F482B40936900E99A0D
:1023100008951F920F920FB60F9211242F933F939F
:102320004F935F936F937F938F939F93AF93BF93DD
:10233000EF93FF938091970690919806892B29F04F
:10234000E0919706F09198060995FF91EF91BF9162
:10235000AF919F918F917F916F915F914F913F913D
:102360002F910F900FBE0F901F9018951F920F92F4
:102370000FB60F9211242F933F934F935F936F9358
:102380007F938F939F93AF93BF93EF93FF9380912E
:10239000990690919A06892B29F0E0919906F0917F
:1023A0009A060995FF91EF91BF91AF919F918F91FF
:1023B0007F916F915F914F913F912F910F900FBE41
:1023C0000F901F9018950F931F93CF93DF93823038
:1023D000910510F482E090E0E091A606F091A70646
:1023E00020E030E0A0E0B0E0309719F14081518169
:1023F0000281138148175907C8F08417950769F4BB
:10240000109731F012960C93129713961C9327C0D5
:102410000093A6061093A70622C02115310519F0D6
:102420004217530718F49A01BD01EF01DF01F801CB
:10243000DBCF21153105F9F0281B390B243031058C
:1024400080F48A819B816115710521F0FB019383E2
:10245000828304C09093A7068093A606FE0132965D
:1024600044C0FE01E20FF31F819391932250310982
:10247000398328833AC02091A4063091A506232BE6
:1024800041F420910201309103013093A50620937D
:10249000A40620910001309101012115310541F47C
:1024A0002DB73EB74091040150910501241B350B17
:1024B000E091A406F091A506E217F307A0F42E1B05
:1024C0003F0B2817390778F0AC014E5F5F4F241798
:1024D000350748F04E0F5F1F5093A5064093A406A2
:1024E0008193919302C0E0E0F0E0CF01DF91CF91C2
:1024F0001F910F910895CF93DF93009709F481C046
:10250000FC01329713821282A091A606B091A70611
:10251000109781F420813181820F931F2091A406AE
:102520003091A5062817390751F5F093A506E093D9
:10253000A40667C0ED0120E030E0CE17DF0740F4CD
:102540004A815B819E0141155105F1F0EA01F5CF09
:10255000D383C28340815181840F951FC817D90747
:1025600059F488819981840F951F02969183808305
:102570008A819B81938382832115310529F4F0930D
:10258000A706E093A6063DC0E901FB83EA834991D3
:102590005991C40FD51FEC17FD0761F4808191811B
:1025A000840F951F0296E901998388838281938124
:1025B0009B838A83E0E0F0E012968D919C911397C3
:1025C000009719F0FD01DC01F7CF8D919C911197D7
:1025D0009D012E5F3F4F820F931F2091A4063091E3
:1025E000A5062817390769F4309729F41092A70631
:1025F0001092A60602C013821282B093A506A09381
:10260000A406DF91CF910895A0E0B0E0EAE0F3E105
:102610000C944317EC01009721F4CB010E94E311C5
:10262000B4C0FC01E60FF71F9C0122503109E217EC
:10263000F30708F4A8C0D9010D911C911197061752
:102640001707B0F00530110508F49BC0C8010497C6
:102650008617970708F495C002501109061B170B3F
:10266000019311936D937C93CF010E947B1289C0DB
:102670005B01A01AB10A4C01800E911EA091A60622
:10268000B091A706612C712CE12CF12C109709F464
:1026900046C08D919C911197A815B905B1F56C01B3
:1026A00042E0C40ED11CCA14DB0478F14C018A1834
:1026B0009B08640142E0C40ED11C1296BC90129794
:1026C0001396AC91B5E0CB16D10440F0B282A3834F
:1026D00091828082D9016D937C9309C00E5F1F4F58
:1026E000800F911FF90191838083EB2DFA2FE11464
:1026F000F10431F0D7011396FC93EE93129741C089
:10270000F093A706E093A6063CC06816790608F485
:102710003C017D0112960D90BC91A02DB7CF809108
:10272000A4069091A50688169906E1F46616770628
:10273000C8F48091000190910101009741F48DB798
:102740009EB74091040150910501841B950BE81739
:10275000F907C8F4F093A506E093A406F901718384
:1027600060830FC0CB010E94E3117C01009759F0F8
:10277000A801BE010E94BD17CE010E947B12C701B5
:1027800004C0CE0102C080E090E0CDB7DEB7EEE03D
:102790000C945F171F920F920FB60F9211242F9374
:1027A0003F938F939F93AF93BF9380919C0690919B
:1027B0009D06A0919E06B0919F0630919B0623E056
:1027C000230F2D3720F40196A11DB11D05C026E869
:1027D000230F0296A11DB11D20939B0680939C069A
:1027E00090939D06A0939E06B0939F068091A006AD
:1027F0009091A106A091A206B091A3060196A11DF9
:10280000B11D8093A0069093A106A093A206B09359
:10281000A306BF91AF919F918F913F912F910F9000
:102820000FBE0F901F9018952FB7F89460919C06DB
:1028300070919D0680919E0690919F062FBF0895EE
:102840003FB7F8948091A0069091A106A091A206AE
:10285000B091A30626B5A89B05C02F3F19F001969D
:10286000A11DB11D3FBFBA2FA92F982F8827820F16
:10287000911DA11DB11DBC01CD0142E0660F771F66
:10288000881F991F4A95D1F70895789484B582607E
:1028900084BD84B5816084BD85B5826085BD85B504
:1028A000816085BDEEE6F0E0808181608083E1E8B3
:1028B000F0E01082808182608083808181608083EB
:1028C000E0E8F0E0808181608083E1EBF0E08081EE
:1028D00084608083E0EBF0E0808181608083EAE7C0
:1028E000F0E0808184608083808182608083808149
:1028F000816080838081806880831092C100089508
:10290000833081F028F4813099F08230A1F008956D
:102910008630A9F08730B9F08430D1F480918000FE
:102920008F7D03C0809180008F7780938000089511
:1029300084B58F7702C084B58F7D84BD0895809162
:10294000B0008F7703C08091B0008F7D8093B0007E
:102950000895CF93DF9390E0FC01E458FF4F24915A
:10296000FC01E057FF4F8491882361F190E0880FCC
:10297000991FFC01E255FF4FC591D491FC01EC5524
:10298000FF4FA591B491611109C09FB7F894888158
:10299000209582238883EC912E230BC0623061F452
:1029A0009FB7F8948881322F309583238883EC91E8
:1029B0002E2B2C939FBF06C08FB7F894E8812E2B47
:1029C00028838FBFDF91CF9108951F93CF93DF931B
:1029D000282F30E0F901E859FF4F8491F901E458BC
:1029E000FF4FD491F901E057FF4FC491CC23C1F0C0
:1029F000162F81110E948014EC2FF0E0EE0FFF1FC4
:102A0000EC55FF4FA591B4919FB7F894111104C0F4
:102A10008C91D095D82302C0EC91DE2BDC939FBF24
:102A2000DF91CF911F9108955058BB27AA270E948C
:102A30002C150C9447160E94391638F00E94401647
:102A400020F039F49F3F19F426F40C9436160EF456
:102A5000E095E7FB0C943016E92F0E94581658F3C6
:102A6000BA17620773078407950720F079F4A6F573
:102A70000C947A160EF4E0950B2EBA2FA02D0B01B4
:102A8000B90190010C01CA01A0011124FF27591BB3
:102A900099F0593F50F4503E68F11A16F040A22FB9
:102AA000232F342F4427585FF3CF4695379527952A
:102AB000A795F0405395C9F77EF41F16BA0B620B29
:102AC000730B840BBAF09150A1F0FF0FBB1F661F70
:102AD000771F881FC2F70EC0BA0F621F731F841FB3
:102AE00048F4879577956795B795F7959E3F08F0D9
:102AF000B0CF9395880F08F09927EE0F979587959B
:102B000008950E9495150C9447160E94401658F09F
:102B10000E94391640F029F45F3F29F00C943016DA
:102B200051110C947B160C9436160E94581668F3BB
:102B30009923B1F3552391F3951B550BBB27AA2776
:102B400062177307840738F09F5F5F4F220F331FB0
:102B5000441FAA1FA9F335D00E2E3AF0E0E832D078
:102B600091505040E695001CCAF72BD0FE2F29D07B
:102B7000660F771F881FBB1F261737074807AB074D
:102B8000B0E809F0BB0B802DBF01FF2793585F4FC2
:102B90003AF09E3F510578F00C9430160C947B1659
:102BA0005F3FE4F3983ED4F3869577956795B795A4
:102BB000F7959F5FC9F7880F911D9695879597F9AF
:102BC0000895E1E0660F771F881FBB1F6217730728
:102BD0008407BA0720F0621B730B840BBA0BEE1F3D
:102BE00088F7E0950895E89409C097FB3EF4909526
:102BF0008095709561957F4F8F4F9F4F9923A9F0D6
:102C0000F92F96E9BB279395F69587957795679564
:102C1000B795F111F8CFFAF4BB0F11F460FF1BC0A8
:102C20006F5F7F4F8F4F9F4F16C0882311F096E93B
:102C300011C0772321F09EE8872F762F05C06623E9
:102C400071F096E8862F70E060E02AF09A95660FA2
:102C5000771F881FDAF7880F9695879597F908955B
:102C600097F99F6780E870E060E008959FEF80EC3F
:102C7000089500240A9416161706180609060895E2
:102C800000240A9412161306140605060895092E48
:102C90000394000C11F4882352F0BB0F40F4BF2BB7
:102CA00011F460FF04C06F5F7F4F8F4F9F4F0895F7
:102CB00057FD9058440F551F59F05F3F71F04795ED
:102CC000880F97FB991F61F09F3F79F087950895D2
:102CD000121613061406551FF2CF4695F1DF08C0F1
:102CE000161617061806991FF1CF8695710561050E
:102CF00008940895E894BB2766277727CB0197F9B6
:102D000008950E9494160C9447160E94391638F0C4
:102D10000E94401620F0952311F00C9430160C946C
:102D2000361611240C947B160E94581670F3959F4A
:102D3000C1F3950F50E0551F629FF001729FBB27B2
:102D4000F00DB11D639FAA27F00DB11DAA1F649F4E
:102D50006627B00DA11D661F829F2227B00DA11D01
:102D6000621F739FB00DA11D621F839FA00D611D87
:102D7000221F749F3327A00D611D231F849F600DA8
:102D8000211D822F762F6A2F11249F5750409AF0D1
:102D9000F1F088234AF0EE0FFF1FBB1F661F771F5D
:102DA000881F91505040A9F79E3F510580F00C9428
:102DB00030160C947B165F3FE4F3983ED4F386956F
:102DC00077956795B795F795E7959F5FC1F7FE2BC8
:102DD000880F911D9695879597F90895DB018F933C
:102DE0009F930E943417BF91AF91A29F800D911DB8
:102DF000A39F900DB29F900D1124089597FB072E6D
:102E000016F4009407D077FD09D00E94941707FCB0
:102E100005D03EF4909581959F4F089570956195EA
:102E20007F4F0895A1E21A2EAA1BBB1BFD010DC006
:102E3000AA1FBB1FEE1FFF1FA217B307E407F5076A
:102E400020F0A21BB30BE40BF50B661F771F881F46
:102E5000991F1A9469F760957095809590959B01DC
:102E6000AC01BD01CF0108950E94AE17A59F900D42
:102E7000B49F900DA49F800D911D112408952F9251
:102E80003F924F925F926F927F928F929F92AF92FA
:102E9000BF92CF92DF92EF92FF920F931F93CF9347
:102EA000DF93CDB7DEB7CA1BDB0B0FB6F894DEBFDE
:102EB0000FBECDBF09942A88398848885F846E8404
:102EC0007D848C849B84AA84B984C884DF80EE804E
:102ED000FD800C811B81AA81B981CE0FD11D0FB657
:102EE000F894DEBF0FBECDBFED01089597FB10F83B
:102EF000169400080F93083098F00850232F342FB1
:102F0000452F562F672F782F892F902DF4CF0594BA
:102F10009795879577956795579547953795279511
:102F20000A95AAF70F910895AA1BBB1B51E107C090
:102F3000AA1FBB1FA617B70710F0A61BB70B881F49
:102F4000991F5A95A9F780959095BC01CD010895D8
:102F5000EE0FFF1F0590F491E02D0994A29FB001A0
:102F6000B39FC001A39F700D811D1124911DB29FBD
:102F7000700D811D1124911D0895FB01DC0102C01B
:102F800001900D9241505040D8F70895F894FFCF2A
:102F90000000A80680007374645F6D7367732F541C
:102FA000696D6500636437313636633734633535B0
:102FB000326333313166626363326665356137622D
:102FC0006332383900726F7373657269616C5F6D5B
:102FD0007367732F546F706963496E666F00306159
:102FE000643531663838666334343839326638636C
:102FF0003130363834303737363436303035007289
:103000006F7373657269616C5F6D7367732F4C6F5B
:1030100067003131616264373331633235393333BC
:103020003236316364363138336264313264363279
:10303000393500396630653938626461363539387A
:1030400031393836646466353361666137613430EE
:10305000653439007374645F6D7367732F466C6FEA
:1030600061743332003733666362663436623439F2
:1030700031393165363732393038653530383432A8
:10308000613833643400637573746F6D5F6D73679B
:10309000732F4163747561746F72735374617465D7
:1030A00000346239396464316365333865366133BD
:1030B00039333164626561643939333630643731AC
:1030C00037004D6573736167652066726F6D2064AC
:1030D00065766963652064726F707065643A206D0F
:1030E000657373616765206C6172676572207468CF
:1030F000616E206275666665722E004155544F0000
:103100004D414E55414C002F6163747561746F726F
:10311000735F7374617465002F737065656400007C
:103120000000008800AC00F200F500000000001173
:10313000062007F800FB0000000000E105CA06FEBB
:10314000000101000000000805E907040107010073
:103150000000000A011E012B012E010000000011D9
:10316000047B0931013401000000004301490B3E9A
:1031700001726F7373657269616C5F6D7367732F32
:1031800052657175657374506172616D0000000065
:0E31900000BA0F3A11630F8F0F730FAF0F00CD
:00000001FF
